{
  "contractName": "RelevantToken",
  "abi": [
    {
      "constant": true,
      "inputs": [],
      "name": "name",
      "outputs": [
        {
          "name": "",
          "type": "string"
        }
      ],
      "payable": false,
      "stateMutability": "view",
      "type": "function",
      "signature": "0x06fdde03"
    },
    {
      "constant": false,
      "inputs": [
        {
          "name": "spender",
          "type": "address"
        },
        {
          "name": "value",
          "type": "uint256"
        }
      ],
      "name": "approve",
      "outputs": [
        {
          "name": "",
          "type": "bool"
        }
      ],
      "payable": false,
      "stateMutability": "nonpayable",
      "type": "function",
      "signature": "0x095ea7b3"
    },
    {
      "constant": true,
      "inputs": [],
      "name": "targetRound",
      "outputs": [
        {
          "name": "",
          "type": "uint256"
        }
      ],
      "payable": false,
      "stateMutability": "view",
      "type": "function",
      "signature": "0x1727bcc7"
    },
    {
      "constant": true,
      "inputs": [],
      "name": "totalSupply",
      "outputs": [
        {
          "name": "",
          "type": "uint256"
        }
      ],
      "payable": false,
      "stateMutability": "view",
      "type": "function",
      "signature": "0x18160ddd"
    },
    {
      "constant": false,
      "inputs": [
        {
          "name": "from",
          "type": "address"
        },
        {
          "name": "to",
          "type": "address"
        },
        {
          "name": "value",
          "type": "uint256"
        }
      ],
      "name": "transferFrom",
      "outputs": [
        {
          "name": "",
          "type": "bool"
        }
      ],
      "payable": false,
      "stateMutability": "nonpayable",
      "type": "function",
      "signature": "0x23b872dd"
    },
    {
      "constant": true,
      "inputs": [],
      "name": "initRoundReward",
      "outputs": [
        {
          "name": "",
          "type": "uint256"
        }
      ],
      "payable": false,
      "stateMutability": "view",
      "type": "function",
      "signature": "0x29a0f85b"
    },
    {
      "constant": true,
      "inputs": [],
      "name": "decimals",
      "outputs": [
        {
          "name": "",
          "type": "uint8"
        }
      ],
      "payable": false,
      "stateMutability": "view",
      "type": "function",
      "signature": "0x313ce567"
    },
    {
      "constant": false,
      "inputs": [
        {
          "name": "spender",
          "type": "address"
        },
        {
          "name": "addedValue",
          "type": "uint256"
        }
      ],
      "name": "increaseAllowance",
      "outputs": [
        {
          "name": "",
          "type": "bool"
        }
      ],
      "payable": false,
      "stateMutability": "nonpayable",
      "type": "function",
      "signature": "0x39509351"
    },
    {
      "constant": false,
      "inputs": [
        {
          "name": "to",
          "type": "address"
        },
        {
          "name": "value",
          "type": "uint256"
        }
      ],
      "name": "mint",
      "outputs": [
        {
          "name": "",
          "type": "bool"
        }
      ],
      "payable": false,
      "stateMutability": "nonpayable",
      "type": "function",
      "signature": "0x40c10f19"
    },
    {
      "constant": true,
      "inputs": [],
      "name": "timeConstant",
      "outputs": [
        {
          "name": "",
          "type": "uint256"
        }
      ],
      "payable": false,
      "stateMutability": "view",
      "type": "function",
      "signature": "0x43568eae"
    },
    {
      "constant": true,
      "inputs": [],
      "name": "startBlock",
      "outputs": [
        {
          "name": "",
          "type": "uint256"
        }
      ],
      "payable": false,
      "stateMutability": "view",
      "type": "function",
      "signature": "0x48cd4cb1"
    },
    {
      "constant": true,
      "inputs": [],
      "name": "version",
      "outputs": [
        {
          "name": "",
          "type": "string"
        }
      ],
      "payable": false,
      "stateMutability": "view",
      "type": "function",
      "signature": "0x54fd4d50"
    },
    {
      "constant": true,
      "inputs": [],
      "name": "roundDecay",
      "outputs": [
        {
          "name": "",
          "type": "uint256"
        }
      ],
      "payable": false,
      "stateMutability": "view",
      "type": "function",
      "signature": "0x672ff5d4"
    },
    {
      "constant": true,
      "inputs": [
        {
          "name": "owner",
          "type": "address"
        }
      ],
      "name": "balanceOf",
      "outputs": [
        {
          "name": "",
          "type": "uint256"
        }
      ],
      "payable": false,
      "stateMutability": "view",
      "type": "function",
      "signature": "0x70a08231"
    },
    {
      "constant": false,
      "inputs": [],
      "name": "renounceOwnership",
      "outputs": [],
      "payable": false,
      "stateMutability": "nonpayable",
      "type": "function",
      "signature": "0x715018a6"
    },
    {
      "constant": true,
      "inputs": [],
      "name": "targetInflation",
      "outputs": [
        {
          "name": "",
          "type": "uint256"
        }
      ],
      "payable": false,
      "stateMutability": "view",
      "type": "function",
      "signature": "0x7581d1d1"
    },
    {
      "constant": true,
      "inputs": [],
      "name": "allocatedRewards",
      "outputs": [
        {
          "name": "",
          "type": "uint256"
        }
      ],
      "payable": false,
      "stateMutability": "view",
      "type": "function",
      "signature": "0x7d556df0"
    },
    {
      "constant": true,
      "inputs": [],
      "name": "lastRound",
      "outputs": [
        {
          "name": "",
          "type": "uint256"
        }
      ],
      "payable": false,
      "stateMutability": "view",
      "type": "function",
      "signature": "0x82bc07e6"
    },
    {
      "constant": true,
      "inputs": [],
      "name": "currentRound",
      "outputs": [
        {
          "name": "",
          "type": "uint256"
        }
      ],
      "payable": false,
      "stateMutability": "view",
      "type": "function",
      "signature": "0x8a19c8bc"
    },
    {
      "constant": true,
      "inputs": [],
      "name": "developmentFund",
      "outputs": [
        {
          "name": "",
          "type": "uint256"
        }
      ],
      "payable": false,
      "stateMutability": "view",
      "type": "function",
      "signature": "0x8a2381d7"
    },
    {
      "constant": true,
      "inputs": [],
      "name": "roundLength",
      "outputs": [
        {
          "name": "",
          "type": "uint256"
        }
      ],
      "payable": false,
      "stateMutability": "view",
      "type": "function",
      "signature": "0x8b649b94"
    },
    {
      "constant": true,
      "inputs": [],
      "name": "owner",
      "outputs": [
        {
          "name": "",
          "type": "address"
        }
      ],
      "payable": false,
      "stateMutability": "view",
      "type": "function",
      "signature": "0x8da5cb5b"
    },
    {
      "constant": true,
      "inputs": [],
      "name": "isOwner",
      "outputs": [
        {
          "name": "",
          "type": "bool"
        }
      ],
      "payable": false,
      "stateMutability": "view",
      "type": "function",
      "signature": "0x8f32d59b"
    },
    {
      "constant": true,
      "inputs": [],
      "name": "symbol",
      "outputs": [
        {
          "name": "",
          "type": "string"
        }
      ],
      "payable": false,
      "stateMutability": "view",
      "type": "function",
      "signature": "0x95d89b41"
    },
    {
      "constant": false,
      "inputs": [
        {
          "name": "account",
          "type": "address"
        }
      ],
      "name": "addMinter",
      "outputs": [],
      "payable": false,
      "stateMutability": "nonpayable",
      "type": "function",
      "signature": "0x983b2d56"
    },
    {
      "constant": false,
      "inputs": [],
      "name": "renounceMinter",
      "outputs": [],
      "payable": false,
      "stateMutability": "nonpayable",
      "type": "function",
      "signature": "0x98650275"
    },
    {
      "constant": false,
      "inputs": [
        {
          "name": "spender",
          "type": "address"
        },
        {
          "name": "subtractedValue",
          "type": "uint256"
        }
      ],
      "name": "decreaseAllowance",
      "outputs": [
        {
          "name": "",
          "type": "bool"
        }
      ],
      "payable": false,
      "stateMutability": "nonpayable",
      "type": "function",
      "signature": "0xa457c2d7"
    },
    {
      "constant": true,
      "inputs": [],
      "name": "currRoundReward",
      "outputs": [
        {
          "name": "",
          "type": "uint256"
        }
      ],
      "payable": false,
      "stateMutability": "view",
      "type": "function",
      "signature": "0xa59efddd"
    },
    {
      "constant": false,
      "inputs": [
        {
          "name": "to",
          "type": "address"
        },
        {
          "name": "value",
          "type": "uint256"
        }
      ],
      "name": "transfer",
      "outputs": [
        {
          "name": "",
          "type": "bool"
        }
      ],
      "payable": false,
      "stateMutability": "nonpayable",
      "type": "function",
      "signature": "0xa9059cbb"
    },
    {
      "constant": true,
      "inputs": [
        {
          "name": "account",
          "type": "address"
        }
      ],
      "name": "isMinter",
      "outputs": [
        {
          "name": "",
          "type": "bool"
        }
      ],
      "payable": false,
      "stateMutability": "view",
      "type": "function",
      "signature": "0xaa271e1a"
    },
    {
      "constant": true,
      "inputs": [],
      "name": "devFundAddress",
      "outputs": [
        {
          "name": "",
          "type": "address"
        }
      ],
      "payable": false,
      "stateMutability": "view",
      "type": "function",
      "signature": "0xb480f6ad"
    },
    {
      "constant": true,
      "inputs": [],
      "name": "lastRoundReward",
      "outputs": [
        {
          "name": "",
          "type": "uint256"
        }
      ],
      "payable": false,
      "stateMutability": "view",
      "type": "function",
      "signature": "0xd7568324"
    },
    {
      "constant": true,
      "inputs": [
        {
          "name": "owner",
          "type": "address"
        },
        {
          "name": "spender",
          "type": "address"
        }
      ],
      "name": "allowance",
      "outputs": [
        {
          "name": "",
          "type": "uint256"
        }
      ],
      "payable": false,
      "stateMutability": "view",
      "type": "function",
      "signature": "0xdd62ed3e"
    },
    {
      "constant": true,
      "inputs": [],
      "name": "totalPremint",
      "outputs": [
        {
          "name": "",
          "type": "uint256"
        }
      ],
      "payable": false,
      "stateMutability": "view",
      "type": "function",
      "signature": "0xde70289e"
    },
    {
      "constant": true,
      "inputs": [],
      "name": "totalReleased",
      "outputs": [
        {
          "name": "",
          "type": "uint256"
        }
      ],
      "payable": false,
      "stateMutability": "view",
      "type": "function",
      "signature": "0xe33b7de3"
    },
    {
      "constant": true,
      "inputs": [],
      "name": "rewardFund",
      "outputs": [
        {
          "name": "",
          "type": "uint256"
        }
      ],
      "payable": false,
      "stateMutability": "view",
      "type": "function",
      "signature": "0xefe22266"
    },
    {
      "constant": false,
      "inputs": [
        {
          "name": "newOwner",
          "type": "address"
        }
      ],
      "name": "transferOwnership",
      "outputs": [],
      "payable": false,
      "stateMutability": "nonpayable",
      "type": "function",
      "signature": "0xf2fde38b"
    },
    {
      "constant": true,
      "inputs": [],
      "name": "allocatedAirdrops",
      "outputs": [
        {
          "name": "",
          "type": "uint256"
        }
      ],
      "payable": false,
      "stateMutability": "view",
      "type": "function",
      "signature": "0xf73c1390"
    },
    {
      "constant": true,
      "inputs": [],
      "name": "airdropFund",
      "outputs": [
        {
          "name": "",
          "type": "uint256"
        }
      ],
      "payable": false,
      "stateMutability": "view",
      "type": "function",
      "signature": "0xfd6a93fb"
    },
    {
      "anonymous": false,
      "inputs": [
        {
          "indexed": false,
          "name": "releasableTokens",
          "type": "uint256"
        },
        {
          "indexed": false,
          "name": "rewardFund",
          "type": "uint256"
        },
        {
          "indexed": false,
          "name": "airdropFund",
          "type": "uint256"
        },
        {
          "indexed": false,
          "name": "developmentFund",
          "type": "uint256"
        }
      ],
      "name": "Released",
      "type": "event",
      "signature": "0x39c15e2884a29a8ddf54563c3cb131c46f3667ecc29b194be9f5cf91b2879725"
    },
    {
      "anonymous": false,
      "inputs": [
        {
          "indexed": false,
          "name": "logString",
          "type": "string"
        },
        {
          "indexed": false,
          "name": "value",
          "type": "uint256"
        }
      ],
      "name": "Log",
      "type": "event",
      "signature": "0xdd970dd9b5bfe707922155b058a407655cb18288b807e2216442bca8ad83d6b5"
    },
    {
      "anonymous": false,
      "inputs": [
        {
          "indexed": false,
          "name": "logString",
          "type": "string"
        },
        {
          "indexed": false,
          "name": "value",
          "type": "address"
        }
      ],
      "name": "LogAddr",
      "type": "event",
      "signature": "0x6d82518c519b6cd311f41c64b27912b63453c12888e8c04d4f5b1e78703c2d22"
    },
    {
      "anonymous": false,
      "inputs": [
        {
          "indexed": true,
          "name": "account",
          "type": "address"
        }
      ],
      "name": "MinterAdded",
      "type": "event",
      "signature": "0x6ae172837ea30b801fbfcdd4108aa1d5bf8ff775444fd70256b44e6bf3dfc3f6"
    },
    {
      "anonymous": false,
      "inputs": [
        {
          "indexed": true,
          "name": "account",
          "type": "address"
        }
      ],
      "name": "MinterRemoved",
      "type": "event",
      "signature": "0xe94479a9f7e1952cc78f2d6baab678adc1b772d936c6583def489e524cb66692"
    },
    {
      "anonymous": false,
      "inputs": [
        {
          "indexed": true,
          "name": "previousOwner",
          "type": "address"
        },
        {
          "indexed": true,
          "name": "newOwner",
          "type": "address"
        }
      ],
      "name": "OwnershipTransferred",
      "type": "event",
      "signature": "0x8be0079c531659141344cd1fd0a4f28419497f9722a3daafe3b4186f6b6457e0"
    },
    {
      "anonymous": false,
      "inputs": [
        {
          "indexed": true,
          "name": "from",
          "type": "address"
        },
        {
          "indexed": true,
          "name": "to",
          "type": "address"
        },
        {
          "indexed": false,
          "name": "value",
          "type": "uint256"
        }
      ],
      "name": "Transfer",
      "type": "event",
      "signature": "0xddf252ad1be2c89b69c2b068fc378daa952ba7f163c4a11628f55a4df523b3ef"
    },
    {
      "anonymous": false,
      "inputs": [
        {
          "indexed": true,
          "name": "owner",
          "type": "address"
        },
        {
          "indexed": true,
          "name": "spender",
          "type": "address"
        },
        {
          "indexed": false,
          "name": "value",
          "type": "uint256"
        }
      ],
      "name": "Approval",
      "type": "event",
      "signature": "0x8c5be1e5ebec7d5bd14f71427d1e84f3dd0314c0f7b2291e5b200ac8c7c3b925"
    },
    {
      "constant": false,
      "inputs": [
        {
          "name": "_name",
          "type": "string"
        },
        {
          "name": "_decimals",
          "type": "uint8"
        },
        {
          "name": "_symbol",
          "type": "string"
        },
        {
          "name": "_version",
          "type": "string"
        },
        {
          "name": "_devFundAddress",
          "type": "address"
        },
        {
          "name": "_initRoundReward",
          "type": "uint256"
        },
        {
          "name": "_timeConstant",
          "type": "uint256"
        },
        {
          "name": "_targetInflation",
          "type": "uint256"
        },
        {
          "name": "_targetRound",
          "type": "uint256"
        },
        {
          "name": "_roundLength",
          "type": "uint256"
        },
        {
          "name": "_roundDecay",
          "type": "uint256"
        },
        {
          "name": "_totalPremint",
          "type": "uint256"
        }
      ],
      "name": "initialize",
      "outputs": [],
      "payable": false,
      "stateMutability": "nonpayable",
      "type": "function",
      "signature": "0x3180bfe1"
    },
    {
      "constant": false,
      "inputs": [
        {
          "name": "sender",
          "type": "address"
        }
      ],
      "name": "initialize",
      "outputs": [],
      "payable": false,
      "stateMutability": "nonpayable",
      "type": "function",
      "signature": "0xc4d66de8"
    },
    {
      "constant": false,
      "inputs": [],
      "name": "releaseTokens",
      "outputs": [
        {
          "name": "",
          "type": "bool"
        }
      ],
      "payable": false,
      "stateMutability": "nonpayable",
      "type": "function",
      "signature": "0xa96f8668"
    },
    {
      "constant": true,
      "inputs": [
        {
          "name": "_round",
          "type": "uint256"
        }
      ],
      "name": "partialSum",
      "outputs": [
        {
          "name": "",
          "type": "uint256"
        }
      ],
      "payable": false,
      "stateMutability": "view",
      "type": "function",
      "signature": "0x9701fa34"
    },
    {
      "constant": false,
      "inputs": [
        {
          "name": "_rewards",
          "type": "uint256"
        }
      ],
      "name": "allocateRewards",
      "outputs": [
        {
          "name": "",
          "type": "bool"
        }
      ],
      "payable": false,
      "stateMutability": "nonpayable",
      "type": "function",
      "signature": "0x28fc33c7"
    },
    {
      "constant": false,
      "inputs": [
        {
          "name": "_rewards",
          "type": "uint256"
        }
      ],
      "name": "allocateAirdrops",
      "outputs": [
        {
          "name": "",
          "type": "bool"
        }
      ],
      "payable": false,
      "stateMutability": "nonpayable",
      "type": "function",
      "signature": "0xca6da57e"
    },
    {
      "constant": false,
      "inputs": [
        {
          "name": "_amount",
          "type": "uint256"
        },
        {
          "name": "_sig",
          "type": "bytes"
        }
      ],
      "name": "claimTokens",
      "outputs": [
        {
          "name": "",
          "type": "bool"
        }
      ],
      "payable": false,
      "stateMutability": "nonpayable",
      "type": "function",
      "signature": "0x14d8bbf1"
    },
    {
      "constant": true,
      "inputs": [
        {
          "name": "_account",
          "type": "address"
        }
      ],
      "name": "nonceOf",
      "outputs": [
        {
          "name": "",
          "type": "uint256"
        }
      ],
      "payable": false,
      "stateMutability": "view",
      "type": "function",
      "signature": "0xed2a2d64"
    },
    {
      "constant": true,
      "inputs": [],
      "name": "roundNum",
      "outputs": [
        {
          "name": "",
          "type": "uint256"
        }
      ],
      "payable": false,
      "stateMutability": "view",
      "type": "function",
      "signature": "0x119b22b3"
    },
    {
      "constant": true,
      "inputs": [],
      "name": "roundsSincleLast",
      "outputs": [
        {
          "name": "",
          "type": "uint256"
        }
      ],
      "payable": false,
      "stateMutability": "view",
      "type": "function",
      "signature": "0x4cf9b9aa"
    },
    {
      "constant": false,
      "inputs": [
        {
          "name": "_roundNum",
          "type": "uint256"
        }
      ],
      "name": "setRoundNum",
      "outputs": [
        {
          "name": "",
          "type": "uint256"
        }
      ],
      "payable": false,
      "stateMutability": "nonpayable",
      "type": "function",
      "signature": "0xdea95ff8"
    },
    {
      "constant": false,
      "inputs": [
        {
          "name": "_roundNum",
          "type": "uint256"
        },
        {
          "name": "_lastRoundReward",
          "type": "uint256"
        },
        {
          "name": "_totalReleased",
          "type": "uint256"
        }
      ],
      "name": "setLastRound",
      "outputs": [
        {
          "name": "",
          "type": "uint256"
        }
      ],
      "payable": false,
      "stateMutability": "nonpayable",
      "type": "function",
      "signature": "0x4e339461"
    },
    {
      "constant": false,
      "inputs": [],
      "name": "emptyDevBalance",
      "outputs": [],
      "payable": false,
      "stateMutability": "nonpayable",
      "type": "function",
      "signature": "0xe5f2e383"
    }
  ],
  "bytecode": "0x608060405234801561001057600080fd5b50613fe5806100206000396000f3fe608060405260043610610272576000357c0100000000000000000000000000000000000000000000000000000000900463ffffffff16806306fdde0314610277578063095ea7b314610307578063119b22b31461037a57806314d8bbf1146103a55780631727bcc71461048f57806318160ddd146104ba57806323b872dd146104e557806328fc33c71461057857806329a0f85b146105cb578063313ce567146105f65780633180bfe114610627578063395093511461089157806340c10f191461090457806343568eae1461097757806348cd4cb1146109a25780634cf9b9aa146109cd5780634e339461146109f857806354fd4d5014610a5b578063672ff5d414610aeb57806370a0823114610b16578063715018a614610b7b5780637581d1d114610b925780637d556df014610bbd57806382bc07e614610be85780638a19c8bc14610c135780638a2381d714610c3e5780638b649b9414610c695780638da5cb5b14610c945780638f32d59b14610ceb57806395d89b4114610d1a5780639701fa3414610daa578063983b2d5614610df95780639865027514610e4a578063a457c2d714610e61578063a59efddd14610ed4578063a9059cbb14610eff578063a96f866814610f72578063aa271e1a14610fa1578063b480f6ad1461100a578063c4d66de814611061578063ca6da57e146110b2578063d756832414611105578063dd62ed3e14611130578063de70289e146111b5578063dea95ff8146111e0578063e33b7de31461122f578063e5f2e3831461125a578063ed2a2d6414611271578063efe22266146112d6578063f2fde38b14611301578063f73c139014611352578063fd6a93fb1461137d575b600080fd5b34801561028357600080fd5b5061028c6113a8565b6040518080602001828103825283818151815260200191508051906020019080838360005b838110156102cc5780820151818401526020810190506102b1565b50505050905090810190601f1680156102f95780820380516001836020036101000a031916815260200191505b509250505060405180910390f35b34801561031357600080fd5b506103606004803603604081101561032a57600080fd5b81019080803573ffffffffffffffffffffffffffffffffffffffff16906020019092919080359060200190929190505050611447565b604051808215151515815260200191505060405180910390f35b34801561038657600080fd5b5061038f611574565b6040518082815260200191505060405180910390f35b3480156103b157600080fd5b50610475600480360360408110156103c857600080fd5b8101908080359060200190929190803590602001906401000000008111156103ef57600080fd5b82018360208201111561040157600080fd5b8035906020019184600183028401116401000000008311171561042357600080fd5b91908080601f016020809104026020016040519081016040528093929190818152602001838380828437600081840152601f19601f8201169050808301925050505050505091929192905050506115a6565b604051808215151515815260200191505060405180910390f35b34801561049b57600080fd5b506104a4611943565b6040518082815260200191505060405180910390f35b3480156104c657600080fd5b506104cf61194a565b6040518082815260200191505060405180910390f35b3480156104f157600080fd5b5061055e6004803603606081101561050857600080fd5b81019080803573ffffffffffffffffffffffffffffffffffffffff169060200190929190803573ffffffffffffffffffffffffffffffffffffffff16906020019092919080359060200190929190505050611954565b604051808215151515815260200191505060405180910390f35b34801561058457600080fd5b506105b16004803603602081101561059b57600080fd5b8101908080359060200190929190505050611b5c565b604051808215151515815260200191505060405180910390f35b3480156105d757600080fd5b506105e0611c55565b6040518082815260200191505060405180910390f35b34801561060257600080fd5b5061060b611c5c565b604051808260ff1660ff16815260200191505060405180910390f35b34801561063357600080fd5b5061088f600480360361018081101561064b57600080fd5b810190808035906020019064010000000081111561066857600080fd5b82018360208201111561067a57600080fd5b8035906020019184600183028401116401000000008311171561069c57600080fd5b91908080601f016020809104026020016040519081016040528093929190818152602001838380828437600081840152601f19601f820116905080830192505050505050509192919290803560ff1690602001909291908035906020019064010000000081111561070c57600080fd5b82018360208201111561071e57600080fd5b8035906020019184600183028401116401000000008311171561074057600080fd5b91908080601f016020809104026020016040519081016040528093929190818152602001838380828437600081840152601f19601f820116905080830192505050505050509192919290803590602001906401000000008111156107a357600080fd5b8201836020820111156107b557600080fd5b803590602001918460018302840111640100000000831117156107d757600080fd5b91908080601f016020809104026020016040519081016040528093929190818152602001838380828437600081840152601f19601f820116905080830192505050505050509192919290803573ffffffffffffffffffffffffffffffffffffffff16906020019092919080359060200190929190803590602001909291908035906020019092919080359060200190929190803590602001909291908035906020019092919080359060200190929190505050611c70565b005b34801561089d57600080fd5b506108ea600480360360408110156108b457600080fd5b81019080803573ffffffffffffffffffffffffffffffffffffffff16906020019092919080359060200190929190505050611ed2565b604051808215151515815260200191505060405180910390f35b34801561091057600080fd5b5061095d6004803603604081101561092757600080fd5b81019080803573ffffffffffffffffffffffffffffffffffffffff16906020019092919080359060200190929190505050612109565b604051808215151515815260200191505060405180910390f35b34801561098357600080fd5b5061098c612133565b6040518082815260200191505060405180910390f35b3480156109ae57600080fd5b506109b761213a565b6040518082815260200191505060405180910390f35b3480156109d957600080fd5b506109e2612141565b6040518082815260200191505060405180910390f35b348015610a0457600080fd5b50610a4560048036036060811015610a1b57600080fd5b81019080803590602001909291908035906020019092919080359060200190929190505050612155565b6040518082815260200191505060405180910390f35b348015610a6757600080fd5b50610a7061228b565b6040518080602001828103825283818151815260200191508051906020019080838360005b83811015610ab0578082015181840152602081019050610a95565b50505050905090810190601f168015610add5780820380516001836020036101000a031916815260200191505b509250505060405180910390f35b348015610af757600080fd5b50610b0061232a565b6040518082815260200191505060405180910390f35b348015610b2257600080fd5b50610b6560048036036020811015610b3957600080fd5b81019080803573ffffffffffffffffffffffffffffffffffffffff169060200190929190505050612331565b6040518082815260200191505060405180910390f35b348015610b8757600080fd5b50610b9061237a565b005b348015610b9e57600080fd5b50610ba761244e565b6040518082815260200191505060405180910390f35b348015610bc957600080fd5b50610bd2612455565b6040518082815260200191505060405180910390f35b348015610bf457600080fd5b50610bfd61245c565b6040518082815260200191505060405180910390f35b348015610c1f57600080fd5b50610c28612463565b6040518082815260200191505060405180910390f35b348015610c4a57600080fd5b50610c5361246a565b6040518082815260200191505060405180910390f35b348015610c7557600080fd5b50610c7e612471565b6040518082815260200191505060405180910390f35b348015610ca057600080fd5b50610ca9612478565b604051808273ffffffffffffffffffffffffffffffffffffffff1673ffffffffffffffffffffffffffffffffffffffff16815260200191505060405180910390f35b348015610cf757600080fd5b50610d006124a2565b604051808215151515815260200191505060405180910390f35b348015610d2657600080fd5b50610d2f6124fa565b6040518080602001828103825283818151815260200191508051906020019080838360005b83811015610d6f578082015181840152602081019050610d54565b50505050905090810190601f168015610d9c5780820380516001836020036101000a031916815260200191505b509250505060405180910390f35b348015610db657600080fd5b50610de360048036036020811015610dcd57600080fd5b8101908080359060200190929190505050612599565b6040518082815260200191505060405180910390f35b348015610e0557600080fd5b50610e4860048036036020811015610e1c57600080fd5b81019080803573ffffffffffffffffffffffffffffffffffffffff1690602001909291905050506125a0565b005b348015610e5657600080fd5b50610e5f6125c0565b005b348015610e6d57600080fd5b50610eba60048036036040811015610e8457600080fd5b81019080803573ffffffffffffffffffffffffffffffffffffffff169060200190929190803590602001909291905050506125cb565b604051808215151515815260200191505060405180910390f35b348015610ee057600080fd5b50610ee9612802565b6040518082815260200191505060405180910390f35b348015610f0b57600080fd5b50610f5860048036036040811015610f2257600080fd5b81019080803573ffffffffffffffffffffffffffffffffffffffff16906020019092919080359060200190929190505050612809565b604051808215151515815260200191505060405180910390f35b348015610f7e57600080fd5b50610f87612820565b604051808215151515815260200191505060405180910390f35b348015610fad57600080fd5b50610ff060048036036020811015610fc457600080fd5b81019080803573ffffffffffffffffffffffffffffffffffffffff1690602001909291905050506129e8565b604051808215151515815260200191505060405180910390f35b34801561101657600080fd5b5061101f612a05565b604051808273ffffffffffffffffffffffffffffffffffffffff1673ffffffffffffffffffffffffffffffffffffffff16815260200191505060405180910390f35b34801561106d57600080fd5b506110b06004803603602081101561108457600080fd5b81019080803573ffffffffffffffffffffffffffffffffffffffff169060200190929190505050612a2c565b005b3480156110be57600080fd5b506110eb600480360360208110156110d557600080fd5b8101908080359060200190929190505050612b6b565b604051808215151515815260200191505060405180910390f35b34801561111157600080fd5b5061111a612c64565b6040518082815260200191505060405180910390f35b34801561113c57600080fd5b5061119f6004803603604081101561115357600080fd5b81019080803573ffffffffffffffffffffffffffffffffffffffff169060200190929190803573ffffffffffffffffffffffffffffffffffffffff169060200190929190505050612c6b565b6040518082815260200191505060405180910390f35b3480156111c157600080fd5b506111ca612cf2565b6040518082815260200191505060405180910390f35b3480156111ec57600080fd5b506112196004803603602081101561120357600080fd5b8101908080359060200190929190505050612cf9565b6040518082815260200191505060405180910390f35b34801561123b57600080fd5b50611244612d21565b6040518082815260200191505060405180910390f35b34801561126657600080fd5b5061126f612d28565b005b34801561127d57600080fd5b506112c06004803603602081101561129457600080fd5b81019080803573ffffffffffffffffffffffffffffffffffffffff169060200190929190505050612ea6565b6040518082815260200191505060405180910390f35b3480156112e257600080fd5b506112eb612ef0565b6040518082815260200191505060405180910390f35b34801561130d57600080fd5b506113506004803603602081101561132457600080fd5b81019080803573ffffffffffffffffffffffffffffffffffffffff169060200190929190505050612ef7565b005b34801561135e57600080fd5b50611367612f16565b6040518082815260200191505060405180910390f35b34801561138957600080fd5b50611392612f1d565b6040518082815260200191505060405180910390f35b6101008054600181600116156101000203166002900480601f01602080910402602001604051908101604052809291908181526020018280546001816001161561010002031660029004801561143f5780601f106114145761010080835404028352916020019161143f565b820191906000526020600020905b81548152906001019060200180831161142257829003601f168201915b505050505081565b60008073ffffffffffffffffffffffffffffffffffffffff168373ffffffffffffffffffffffffffffffffffffffff161415151561148457600080fd5b81603460003373ffffffffffffffffffffffffffffffffffffffff1673ffffffffffffffffffffffffffffffffffffffff16815260200190815260200160002060008573ffffffffffffffffffffffffffffffffffffffff1673ffffffffffffffffffffffffffffffffffffffff168152602001908152602001600020819055508273ffffffffffffffffffffffffffffffffffffffff163373ffffffffffffffffffffffffffffffffffffffff167f8c5be1e5ebec7d5bd14f71427d1e84f3dd0314c0f7b2291e5b200ac8c7c3b925846040518082815260200191505060405180910390a36001905092915050565b60006115a161010a5461159361010e5443612f2490919063ffffffff16565b612f4690919063ffffffff16565b905090565b60008261011554101515156115ba57600080fd5b6000833361011760003373ffffffffffffffffffffffffffffffffffffffff1673ffffffffffffffffffffffffffffffffffffffff16815260200190815260200160002054604051602001808481526020018373ffffffffffffffffffffffffffffffffffffffff1673ffffffffffffffffffffffffffffffffffffffff166c0100000000000000000000000002815260140182815260200193505050506040516020818303038152906040528051906020012090508060405160200180807f19457468657265756d205369676e6564204d6573736167653a0a333200000000815250601c0182815260200191505060405160208183030381529060405280519060200120905060006116cd8285612f70565b90508073ffffffffffffffffffffffffffffffffffffffff166116ee612478565b73ffffffffffffffffffffffffffffffffffffffff16141515611779576040517f08c379a00000000000000000000000000000000000000000000000000000000081526004018080602001828103825260148152602001807f436c61696d206e6f7420617574686f72697a656400000000000000000000000081525060200191505060405180910390fd5b600161011760003373ffffffffffffffffffffffffffffffffffffffff1673ffffffffffffffffffffffffffffffffffffffff168152602001908152602001600020600082825401925050819055506117de8561011554612f2490919063ffffffff16565b610115819055503073ffffffffffffffffffffffffffffffffffffffff1663a9059cbb33876040518363ffffffff167c0100000000000000000000000000000000000000000000000000000000028152600401808373ffffffffffffffffffffffffffffffffffffffff1673ffffffffffffffffffffffffffffffffffffffff16815260200182815260200192505050602060405180830381600087803b15801561188857600080fd5b505af115801561189c573d6000803e3d6000fd5b505050506040513d60208110156118b257600080fd5b81019080805190602001909291905050501515611937576040517f08c379a000000000000000000000000000000000000000000000000000000000815260040180806020018281038252601b8152602001807f5472616e7366657220746f20636c61696d616e74206661696c6564000000000081525060200191505060405180910390fd5b60019250505092915050565b6101095481565b6000603554905090565b60006119e582603460008773ffffffffffffffffffffffffffffffffffffffff1673ffffffffffffffffffffffffffffffffffffffff16815260200190815260200160002060003373ffffffffffffffffffffffffffffffffffffffff1673ffffffffffffffffffffffffffffffffffffffff16815260200190815260200160002054612f2490919063ffffffff16565b603460008673ffffffffffffffffffffffffffffffffffffffff1673ffffffffffffffffffffffffffffffffffffffff16815260200190815260200160002060003373ffffffffffffffffffffffffffffffffffffffff1673ffffffffffffffffffffffffffffffffffffffff16815260200190815260200160002081905550611a70848484613054565b3373ffffffffffffffffffffffffffffffffffffffff168473ffffffffffffffffffffffffffffffffffffffff167f8c5be1e5ebec7d5bd14f71427d1e84f3dd0314c0f7b2291e5b200ac8c7c3b925603460008873ffffffffffffffffffffffffffffffffffffffff1673ffffffffffffffffffffffffffffffffffffffff16815260200190815260200160002060003373ffffffffffffffffffffffffffffffffffffffff1673ffffffffffffffffffffffffffffffffffffffff168152602001908152602001600020546040518082815260200191505060405180910390a3600190509392505050565b6000611b666124a2565b1515611b7157600080fd5b610112548211151515611c12576040517f08c379a00000000000000000000000000000000000000000000000000000000081526004018080602001828103825260258152602001807f4e6f7420656e6f756768206375726174696f6e2072657761726473206176616981526020017f6c61626c6500000000000000000000000000000000000000000000000000000081525060400191505060405180910390fd5b611c288261011254612f2490919063ffffffff16565b61011281905550611c45826101155461322490919063ffffffff16565b6101158190555060019050919050565b6101055481565b61010160009054906101000a900460ff1681565b600060019054906101000a900460ff1680611c8f5750611c8e613245565b5b80611ca657506000809054906101000a900460ff16155b1515611d40576040517f08c379a000000000000000000000000000000000000000000000000000000000815260040180806020018281038252602e8152602001807f436f6e747261637420696e7374616e63652068617320616c726561647920626581526020017f656e20696e697469616c697a656400000000000000000000000000000000000081525060400191505060405180910390fd5b60008060019054906101000a900460ff1690506001600060016101000a81548160ff02191690831515021790555060016000806101000a81548160ff021916908315150217905550611d9133613256565b611d9a33612a2c565b8c6101009080519060200190611db1929190613f14565b508b61010160006101000a81548160ff021916908360ff1602179055508a6101029080519060200190611de5929190613f14565b50896101039080519060200190611dfd929190613f14565b508861010460006101000a81548173ffffffffffffffffffffffffffffffffffffffff021916908373ffffffffffffffffffffffffffffffffffffffff16021790555087610105819055508661010781905550856101088190555084610109819055508361010a819055508261010b819055504361010e819055506101055461010681905550600061010f8190555061010554610110819055508161010c81905550611ea88261344a565b5080600060016101000a81548160ff02191690831515021790555050505050505050505050505050565b60008073ffffffffffffffffffffffffffffffffffffffff168373ffffffffffffffffffffffffffffffffffffffff1614151515611f0f57600080fd5b611f9e82603460003373ffffffffffffffffffffffffffffffffffffffff1673ffffffffffffffffffffffffffffffffffffffff16815260200190815260200160002060008673ffffffffffffffffffffffffffffffffffffffff1673ffffffffffffffffffffffffffffffffffffffff1681526020019081526020016000205461322490919063ffffffff16565b603460003373ffffffffffffffffffffffffffffffffffffffff1673ffffffffffffffffffffffffffffffffffffffff16815260200190815260200160002060008573ffffffffffffffffffffffffffffffffffffffff1673ffffffffffffffffffffffffffffffffffffffff168152602001908152602001600020819055508273ffffffffffffffffffffffffffffffffffffffff163373ffffffffffffffffffffffffffffffffffffffff167f8c5be1e5ebec7d5bd14f71427d1e84f3dd0314c0f7b2291e5b200ac8c7c3b925603460003373ffffffffffffffffffffffffffffffffffffffff1673ffffffffffffffffffffffffffffffffffffffff16815260200190815260200160002060008773ffffffffffffffffffffffffffffffffffffffff1673ffffffffffffffffffffffffffffffffffffffff168152602001908152602001600020546040518082815260200191505060405180910390a36001905092915050565b6000612114336129e8565b151561211f57600080fd5b6121298383613460565b6001905092915050565b6101075481565b61010e5481565b600061010f5461214f611574565b03905090565b600061215f6124a2565b151561216a57600080fd5b61010d548410151561220a576040517f08c379a00000000000000000000000000000000000000000000000000000000081526004018080602001828103825260298152602001807f4c6173742072656c65617365206d757374206265206265666f7265206375727281526020017f656e7420726f756e64000000000000000000000000000000000000000000000081525060400191505060405180910390fd5b8361010f8190555082610110819055508161011181905550612249600561223b6002856135b690919063ffffffff16565b612f4690919063ffffffff16565b6101128190555061227760056122696002856135b690919063ffffffff16565b612f4690919063ffffffff16565b6101138190555061010f5490509392505050565b6101038054600181600116156101000203166002900480601f0160208091040260200160405190810160405280929190818152602001828054600181600116156101000203166002900480156123225780601f106122f757610100808354040283529160200191612322565b820191906000526020600020905b81548152906001019060200180831161230557829003601f168201915b505050505081565b61010b5481565b6000603360008373ffffffffffffffffffffffffffffffffffffffff1673ffffffffffffffffffffffffffffffffffffffff168152602001908152602001600020549050919050565b6123826124a2565b151561238d57600080fd5b600073ffffffffffffffffffffffffffffffffffffffff16606860009054906101000a900473ffffffffffffffffffffffffffffffffffffffff1673ffffffffffffffffffffffffffffffffffffffff167f8be0079c531659141344cd1fd0a4f28419497f9722a3daafe3b4186f6b6457e060405160405180910390a36000606860006101000a81548173ffffffffffffffffffffffffffffffffffffffff021916908373ffffffffffffffffffffffffffffffffffffffff160217905550565b6101085481565b6101155481565b61010f5481565b61010d5481565b6101145481565b61010a5481565b6000606860009054906101000a900473ffffffffffffffffffffffffffffffffffffffff16905090565b6000606860009054906101000a900473ffffffffffffffffffffffffffffffffffffffff1673ffffffffffffffffffffffffffffffffffffffff163373ffffffffffffffffffffffffffffffffffffffff1614905090565b6101028054600181600116156101000203166002900480601f0160208091040260200160405190810160405280929190818152602001828054600181600116156101000203166002900480156125915780601f1061256657610100808354040283529160200191612591565b820191906000526020600020905b81548152906001019060200180831161257457829003601f168201915b505050505081565b6000919050565b6125a9336129e8565b15156125b457600080fd5b6125bd816135f4565b50565b6125c93361364e565b565b60008073ffffffffffffffffffffffffffffffffffffffff168373ffffffffffffffffffffffffffffffffffffffff161415151561260857600080fd5b61269782603460003373ffffffffffffffffffffffffffffffffffffffff1673ffffffffffffffffffffffffffffffffffffffff16815260200190815260200160002060008673ffffffffffffffffffffffffffffffffffffffff1673ffffffffffffffffffffffffffffffffffffffff16815260200190815260200160002054612f2490919063ffffffff16565b603460003373ffffffffffffffffffffffffffffffffffffffff1673ffffffffffffffffffffffffffffffffffffffff16815260200190815260200160002060008573ffffffffffffffffffffffffffffffffffffffff1673ffffffffffffffffffffffffffffffffffffffff168152602001908152602001600020819055508273ffffffffffffffffffffffffffffffffffffffff163373ffffffffffffffffffffffffffffffffffffffff167f8c5be1e5ebec7d5bd14f71427d1e84f3dd0314c0f7b2291e5b200ac8c7c3b925603460003373ffffffffffffffffffffffffffffffffffffffff1673ffffffffffffffffffffffffffffffffffffffff16815260200190815260200160002060008773ffffffffffffffffffffffffffffffffffffffff1673ffffffffffffffffffffffffffffffffffffffff168152602001908152602001600020546040518082815260200191505060405180910390a36001905092915050565b6101065481565b6000612816338484613054565b6001905092915050565b600080600061282d611574565b90508061010f541015156128a9576040517f08c379a00000000000000000000000000000000000000000000000000000000081526004018080602001828103825260188152602001807f4e6f206e6577207265776172647320617661696c61626c65000000000000000081525060200191505060405180910390fd5b60006128c161010f5483612f2490919063ffffffff16565b90506101095461010f541015156128f75760006101115490506128e481836136a8565b93506128f03085612109565b505061294f565b610109548210156129125761290b81613744565b925061294e565b600061291c6137f3565b9050600061292984613818565b905061293e818361322490919063ffffffff16565b945061294a3082612109565b5050505b5b61295883613867565b612960613926565b508161010f8190555061297f836101115461322490919063ffffffff16565b610111819055507f39c15e2884a29a8ddf54563c3cb131c46f3667ecc29b194be9f5cf91b2879725836101125461011354610114546040518085815260200184815260200183815260200182815260200194505050505060405180910390a16001935050505090565b60006129fe82609b613ad690919063ffffffff16565b9050919050565b61010460009054906101000a900473ffffffffffffffffffffffffffffffffffffffff1681565b600060019054906101000a900460ff1680612a4b5750612a4a613245565b5b80612a6257506000809054906101000a900460ff16155b1515612afc576040517f08c379a000000000000000000000000000000000000000000000000000000000815260040180806020018281038252602e8152602001807f436f6e747261637420696e7374616e63652068617320616c726561647920626581526020017f656e20696e697469616c697a656400000000000000000000000000000000000081525060400191505060405180910390fd5b60008060019054906101000a900460ff1690506001600060016101000a81548160ff02191690831515021790555060016000806101000a81548160ff021916908315150217905550612b4d82613b6a565b80600060016101000a81548160ff0219169083151502179055505050565b6000612b756124a2565b1515612b8057600080fd5b610113548211151515612c21576040517f08c379a00000000000000000000000000000000000000000000000000000000081526004018080602001828103825260248152602001807f4e6f7420656e6f7567682061697264726f70207265776172647320617661696c81526020017f61626c650000000000000000000000000000000000000000000000000000000081525060400191505060405180910390fd5b612c378261011354612f2490919063ffffffff16565b61011381905550612c54826101165461322490919063ffffffff16565b6101168190555060019050919050565b6101105481565b6000603460008473ffffffffffffffffffffffffffffffffffffffff1673ffffffffffffffffffffffffffffffffffffffff16815260200190815260200160002060008373ffffffffffffffffffffffffffffffffffffffff1673ffffffffffffffffffffffffffffffffffffffff16815260200190815260200160002054905092915050565b61010c5481565b6000612d036124a2565b1515612d0e57600080fd5b8161010d8190555061010d549050919050565b6101115481565b612d306124a2565b1515612d3b57600080fd5b6000612d6961010460009054906101000a900473ffffffffffffffffffffffffffffffffffffffff16612331565b90503073ffffffffffffffffffffffffffffffffffffffff166323b872dd61010460009054906101000a900473ffffffffffffffffffffffffffffffffffffffff16610123846040518463ffffffff167c0100000000000000000000000000000000000000000000000000000000028152600401808473ffffffffffffffffffffffffffffffffffffffff1673ffffffffffffffffffffffffffffffffffffffff1681526020018373ffffffffffffffffffffffffffffffffffffffff1673ffffffffffffffffffffffffffffffffffffffff1681526020018281526020019350505050602060405180830381600087803b158015612e6757600080fd5b505af1158015612e7b573d6000803e3d6000fd5b505050506040513d6020811015612e9157600080fd5b81019080805190602001909291905050505050565b600061011760008373ffffffffffffffffffffffffffffffffffffffff1673ffffffffffffffffffffffffffffffffffffffff168152602001908152602001600020549050919050565b6101125481565b612eff6124a2565b1515612f0a57600080fd5b612f1381613cb9565b50565b6101165481565b6101135481565b6000828211151515612f3557600080fd5b600082840390508091505092915050565b60008082111515612f5657600080fd5b60008284811515612f6357fe5b0490508091505092915050565b60008060008060418551141515612f8d576000935050505061304e565b6020850151925060408501519150606085015160001a9050601b8160ff161015612fb857601b810190505b601b8160ff1614158015612fd05750601c8160ff1614155b15612fe1576000935050505061304e565b60018682858560405160008152602001604052604051808581526020018460ff1660ff1681526020018381526020018281526020019450505050506020604051602081039080840390855afa15801561303e573d6000803e3d6000fd5b5050506020604051035193505050505b92915050565b600073ffffffffffffffffffffffffffffffffffffffff168273ffffffffffffffffffffffffffffffffffffffff161415151561309057600080fd5b6130e281603360008673ffffffffffffffffffffffffffffffffffffffff1673ffffffffffffffffffffffffffffffffffffffff16815260200190815260200160002054612f2490919063ffffffff16565b603360008573ffffffffffffffffffffffffffffffffffffffff1673ffffffffffffffffffffffffffffffffffffffff1681526020019081526020016000208190555061317781603360008573ffffffffffffffffffffffffffffffffffffffff1673ffffffffffffffffffffffffffffffffffffffff1681526020019081526020016000205461322490919063ffffffff16565b603360008473ffffffffffffffffffffffffffffffffffffffff1673ffffffffffffffffffffffffffffffffffffffff168152602001908152602001600020819055508173ffffffffffffffffffffffffffffffffffffffff168373ffffffffffffffffffffffffffffffffffffffff167fddf252ad1be2c89b69c2b068fc378daa952ba7f163c4a11628f55a4df523b3ef836040518082815260200191505060405180910390a3505050565b600080828401905083811015151561323b57600080fd5b8091505092915050565b600080303b90506000811491505090565b600060019054906101000a900460ff16806132755750613274613245565b5b8061328c57506000809054906101000a900460ff16155b1515613326576040517f08c379a000000000000000000000000000000000000000000000000000000000815260040180806020018281038252602e8152602001807f436f6e747261637420696e7374616e63652068617320616c726561647920626581526020017f656e20696e697469616c697a656400000000000000000000000000000000000081525060400191505060405180910390fd5b60008060019054906101000a900460ff1690506001600060016101000a81548160ff02191690831515021790555060016000806101000a81548160ff02191690831515021790555081606860006101000a81548173ffffffffffffffffffffffffffffffffffffffff021916908373ffffffffffffffffffffffffffffffffffffffff160217905550606860009054906101000a900473ffffffffffffffffffffffffffffffffffffffff1673ffffffffffffffffffffffffffffffffffffffff16600073ffffffffffffffffffffffffffffffffffffffff167f8be0079c531659141344cd1fd0a4f28419497f9722a3daafe3b4186f6b6457e060405160405180910390a380600060016101000a81548160ff0219169083151502179055505050565b60006134563083612109565b5060019050919050565b600073ffffffffffffffffffffffffffffffffffffffff168273ffffffffffffffffffffffffffffffffffffffff161415151561349c57600080fd5b6134b18160355461322490919063ffffffff16565b60358190555061350981603360008573ffffffffffffffffffffffffffffffffffffffff1673ffffffffffffffffffffffffffffffffffffffff1681526020019081526020016000205461322490919063ffffffff16565b603360008473ffffffffffffffffffffffffffffffffffffffff1673ffffffffffffffffffffffffffffffffffffffff168152602001908152602001600020819055508173ffffffffffffffffffffffffffffffffffffffff16600073ffffffffffffffffffffffffffffffffffffffff167fddf252ad1be2c89b69c2b068fc378daa952ba7f163c4a11628f55a4df523b3ef836040518082815260200191505060405180910390a35050565b6000808314156135c957600090506135ee565b600082840290508284828115156135dc57fe5b041415156135e957600080fd5b809150505b92915050565b61360881609b613db590919063ffffffff16565b8073ffffffffffffffffffffffffffffffffffffffff167f6ae172837ea30b801fbfcdd4108aa1d5bf8ff775444fd70256b44e6bf3dfc3f660405160405180910390a250565b61366281609b613e6590919063ffffffff16565b8073ffffffffffffffffffffffffffffffffffffffff167fe94479a9f7e1952cc78f2d6baab678adc1b772d936c6583def489e524cb6669260405160405180910390a250565b600080839050600080600090505b848110156137385760006136fe61010160009054906101000a900460ff1660ff16600a0a6136f086610108546135b690919063ffffffff16565b612f4690919063ffffffff16565b9050613713818461322490919063ffffffff16565b9250613728818561322490919063ffffffff16565b93505080806001019150506136b6565b50809250505092915050565b600080600061010f54141561375a576101055490505b620186a08310156137e957600080600090505b848110156137e2576137b661010160009054906101000a900460ff1660ff16600a0a6137a86101105461010b546135b690919063ffffffff16565b612f4690919063ffffffff16565b91506137cb828461322490919063ffffffff16565b92508161011081905550808060010191505061376d565b50506137ea565b5b80915050919050565b60008061380f6101115461010c54612f2490919063ffffffff16565b90508091505090565b60008061010c549050600061384c600161383e6101095487612f2490919063ffffffff16565b61322490919063ffffffff16565b9050600061385a83836136a8565b9050809350505050919050565b600061389060056138826004856135b690919063ffffffff16565b612f4690919063ffffffff16565b90506138bb6138a9600283612f4690919063ffffffff16565b6101135461322490919063ffffffff16565b610113819055506138eb6138d9600283612f4690919063ffffffff16565b6101125461322490919063ffffffff16565b6101128190555061391b613909600584612f4690919063ffffffff16565b6101145461322490919063ffffffff16565b610114819055505050565b60003073ffffffffffffffffffffffffffffffffffffffff1663a9059cbb61010460009054906101000a900473ffffffffffffffffffffffffffffffffffffffff16610114546040518363ffffffff167c0100000000000000000000000000000000000000000000000000000000028152600401808373ffffffffffffffffffffffffffffffffffffffff1673ffffffffffffffffffffffffffffffffffffffff16815260200182815260200192505050602060405180830381600087803b1580156139f157600080fd5b505af1158015613a05573d6000803e3d6000fd5b505050506040513d6020811015613a1b57600080fd5b81019080805190602001909291905050501515613ac6576040517f08c379a00000000000000000000000000000000000000000000000000000000081526004018080602001828103825260218152602001807f5472616e7366657220746f2064657646756e6441646472657373206661696c6581526020017f640000000000000000000000000000000000000000000000000000000000000081525060400191505060405180910390fd5b6000610114819055506001905090565b60008073ffffffffffffffffffffffffffffffffffffffff168273ffffffffffffffffffffffffffffffffffffffff1614151515613b1357600080fd5b8260000160008373ffffffffffffffffffffffffffffffffffffffff1673ffffffffffffffffffffffffffffffffffffffff16815260200190815260200160002060009054906101000a900460ff16905092915050565b600060019054906101000a900460ff1680613b895750613b88613245565b5b80613ba057506000809054906101000a900460ff16155b1515613c3a576040517f08c379a000000000000000000000000000000000000000000000000000000000815260040180806020018281038252602e8152602001807f436f6e747261637420696e7374616e63652068617320616c726561647920626581526020017f656e20696e697469616c697a656400000000000000000000000000000000000081525060400191505060405180910390fd5b60008060019054906101000a900460ff1690506001600060016101000a81548160ff02191690831515021790555060016000806101000a81548160ff021916908315150217905550613c8b826129e8565b1515613c9b57613c9a826135f4565b5b80600060016101000a81548160ff0219169083151502179055505050565b600073ffffffffffffffffffffffffffffffffffffffff168173ffffffffffffffffffffffffffffffffffffffff1614151515613cf557600080fd5b8073ffffffffffffffffffffffffffffffffffffffff16606860009054906101000a900473ffffffffffffffffffffffffffffffffffffffff1673ffffffffffffffffffffffffffffffffffffffff167f8be0079c531659141344cd1fd0a4f28419497f9722a3daafe3b4186f6b6457e060405160405180910390a380606860006101000a81548173ffffffffffffffffffffffffffffffffffffffff021916908373ffffffffffffffffffffffffffffffffffffffff16021790555050565b600073ffffffffffffffffffffffffffffffffffffffff168173ffffffffffffffffffffffffffffffffffffffff1614151515613df157600080fd5b613dfb8282613ad6565b151515613e0757600080fd5b60018260000160008373ffffffffffffffffffffffffffffffffffffffff1673ffffffffffffffffffffffffffffffffffffffff16815260200190815260200160002060006101000a81548160ff0219169083151502179055505050565b600073ffffffffffffffffffffffffffffffffffffffff168173ffffffffffffffffffffffffffffffffffffffff1614151515613ea157600080fd5b613eab8282613ad6565b1515613eb657600080fd5b60008260000160008373ffffffffffffffffffffffffffffffffffffffff1673ffffffffffffffffffffffffffffffffffffffff16815260200190815260200160002060006101000a81548160ff0219169083151502179055505050565b828054600181600116156101000203166002900490600052602060002090601f016020900481019282601f10613f5557805160ff1916838001178555613f83565b82800160010185558215613f83579182015b82811115613f82578251825591602001919060010190613f67565b5b509050613f909190613f94565b5090565b613fb691905b80821115613fb2576000816000905550600101613f9a565b5090565b9056fea165627a7a72305820c31355c1467f5f69112a8e2f8561e4a8697e680381b96c2adc88a46f395f4df50029",
  "source": "pragma solidity ^0.5.0;\n\nimport \"openzeppelin-eth/contracts/token/ERC20/ERC20Mintable.sol\";\nimport \"openzeppelin-eth/contracts/token/ERC20/ERC20.sol\";\nimport \"openzeppelin-eth/contracts/ownership/Ownable.sol\";\nimport \"openzeppelin-eth/contracts/cryptography/ECDSA.sol\";\nimport \"zos-lib/contracts/Initializable.sol\";\n// import \"./Power.sol\";\n\n\n/**\n * @title An Inflationary Token with premint, gradual release, exponential decay of inflationary rewards, and a target inflation rate\n */\n\ncontract RelevantToken is Initializable, ERC20, Ownable, ERC20Mintable {\n\n  event Released(uint256 releasableTokens, uint256 rewardFund, uint256 airdropFund, uint256 developmentFund);\n  // event ParameterUpdate(string param);\n\n  string public name;\n  uint8 public decimals;\n  string public symbol;\n  string public version;\n  address public devFundAddress;\n  uint256 public initRoundReward;\n  uint256 public currRoundReward;\n  uint256 public timeConstant;\n  uint256 public targetInflation;\n  uint256 public targetRound;\n  uint256 public roundLength;\n  uint256 public roundDecay;\n  uint256 public totalPremint;\n  uint256 public currentRound; // only for testing to simulate block progression\n  uint256 public startBlock; // Block number at which the contract is deployed\n  uint256 public lastRound; // Round at which the last release was made\n  uint256 public lastRoundReward; // Reward of the round where tokens were last released (only computed during decay phase)\n  uint256 public totalReleased; // All tokens released until and including the last release\n\n  uint256 public rewardFund; // Bucket of inflationary tokens available to be allocated for curation rewards\n  uint256 public airdropFund; // Bucket of inflationary tokens available for airdrops/new user/referral rewards\n  uint256 public developmentFund; // Bucket of inflationary tokens reserved for development - gets transferred to devFundAddress immediately\n  uint256 public allocatedRewards; // Bucket of curation reward tokens reserved/'spoken for' but not yet claimed by users\n  uint256 public allocatedAirdrops; // Bucket of airdrop reward tokens reserved/'spoken for' but not yet claimed by users\n\n  mapping(address => uint256) nonces;\n\n  /**\n   * @dev ContPreInflationaryToken constructor\n   * @param _devFundAddress         Address that receives and manages newly minted tokens for development fund\n   * @param _initRoundReward        Number of released inflationary tokens per round during the first round\n   * @param _timeConstant           Number of blocks after which reward reduces to 37% of initial value during exponential decay - can be calculated from half-life\n   * @param _targetInflation        Target inflation rate per round at which the reward decay should stop - can be calculated from target yearly inflation rate\n   * @param _targetRound            Number of round from which inflation stays constant - can be calculated from timeConstant, initRoundReward and targetInflation\n   * @param _roundLength            Number of blocks that make up an inflation release round\n   * @param _roundDecay             Decay factor for the reward reduction during one round - can be calculated from timeConstant and roundLength\n   * @param _totalPremint           Rewards that are preminted (all until decay stops) - can be calculated from timeConstant, initRoundReward and targetInflation\n   */\n  function initialize(\n    string memory _name,\n    uint8 _decimals,\n    string memory _symbol,\n    string memory _version,\n    address _devFundAddress,\n    uint256 _initRoundReward,\n    uint256 _timeConstant,\n    uint256 _targetInflation,\n    uint256 _targetRound,\n    uint256 _roundLength,\n    uint256 _roundDecay,\n    uint256 _totalPremint\n  )   public\n    initializer\n  {\n    Ownable.initialize(msg.sender);\n    ERC20Mintable.initialize(msg.sender);\n\n    name = _name;\n    decimals = _decimals;\n    symbol = _symbol;\n    version = _version;\n    devFundAddress = _devFundAddress;\n    initRoundReward = _initRoundReward;\n    timeConstant = _timeConstant;\n    targetInflation = _targetInflation;\n    targetRound = _targetRound;\n    roundLength = _roundLength;\n    roundDecay = _roundDecay;\n\n    startBlock = block.number;\n    currRoundReward = initRoundReward;\n    lastRound = 0;\n    lastRoundReward = initRoundReward;\n    totalPremint = _totalPremint;\n    preMintTokens(_totalPremint);\n  }\n\n  /**\n   * @dev Mint the number of inflationary tokens until constant inflation/target round is reached\n   */\n  function preMintTokens(uint256 _toBeMinted) internal returns (bool) {\n    mint(address(this), _toBeMinted);\n    return true;\n  }\n\n  /**\n   * @dev Compute and release currently releasable inflationary rewards\n   */\n  function releaseTokens() public returns (bool) {\n    uint256 releasableTokens;\n    uint256 currentRound = roundNum();\n    require(lastRound < currentRound, \"No new rewards available\"); // Check if already called for the current round\n    uint256 roundsPassed = currentRound.sub(lastRound);\n\n    if (lastRound >= targetRound) {\n      // Last release was during constant inflation, so we are entirely in the constant inflation phase\n      uint256 startTotalTokens = totalReleased;\n      releasableTokens = newTokensForConstantPhase(startTotalTokens, roundsPassed);\n      mint(address(this), releasableTokens);\n    } else {\n      // Last release was during the decay phase - 2 nested cases:\n      if (currentRound < targetRound) {\n        // We are currently still in the decay phase - no new mint, since this is covered by the pre-mint\n        releasableTokens = newTokensForDecayPhase(roundsPassed);\n      } else {\n        // We have recently crossed from the decay phase into the constant inflation phase, so we have to compute separately\n        uint256 releasableFromDecay = newTokensForCrossingDecay();\n        uint256 releasableFromConst = newTokensForCrossingConst(currentRound);\n        releasableTokens = releasableFromDecay.add(releasableFromConst);\n        mint(address(this), releasableFromConst);\n      }\n    }\n\n    splitRewards(releasableTokens); // split into different buckets (rewardFund, airdrop, devFund)\n    toDevFund(); // transfer devFund out immediately\n    lastRound = currentRound; // Set current round as last release\n    totalReleased = totalReleased.add(releasableTokens); // Increase totalReleased count\n    emit Released(releasableTokens, rewardFund, airdropFund, developmentFund);\n    return true;\n  }\n\n  /**\n   * @dev Compute number of tokens to release once inflation is constant\n   * @param _totalTokens Number of tokens in supply at the beginning of the phase for which the rewards are being calculated\n   * @param _roundsPassed Number of rounds since last release\n   */\n  function newTokensForConstantPhase(uint256 _totalTokens, uint256 _roundsPassed) internal view returns (uint256) {\n    uint256 totalTokens = _totalTokens;\n    uint256 releasableTokens;\n    for (uint i = 0; i < _roundsPassed; i++) {\n      uint256 toBeMintedInRound = targetInflation.mul(totalTokens).div(10**uint256(decimals));\n      releasableTokens = releasableTokens.add(toBeMintedInRound);\n      totalTokens = totalTokens.add(toBeMintedInRound);\n    }\n    return releasableTokens;\n  }\n\n  /**\n   * @dev Compute number of tokens to release during decay phase\n   * @param _roundsPassed Number of rounds since last update\n   */\n  function newTokensForDecayPhase(uint256 _roundsPassed) internal returns (uint256) {\n    uint256 releasableTokens;\n    // if it is the very first release we have to make sure that initRoundReward is included in the release\n    if (lastRound == 0) {\n      releasableTokens = initRoundReward;\n    }\n    if (_roundsPassed < 100000) { // this threshold needs to be optimized - for now we always (virtually) use the loop method\n    // If the last release was made less than X rounds ago, we use the discrete loop method to add up all new tokens applying roundDecay after each round.\n      uint256 roundReward;\n      for (uint j = 0; j < _roundsPassed; j++) {\n        roundReward = roundDecay.mul(lastRoundReward).div(10**uint256(decimals));\n        releasableTokens = releasableTokens.add(roundReward);\n        lastRoundReward = roundReward;\n      }\n    } else {\n    // If more rounds have passed we don't want to loop that many times\n    // and therefore use integration using the partial sum formula\n    // releasableTokens = initReward.add(partialSum(currentRound)).sub(totalReleased);\n    // (then still need to set lastRoundReward using A_0*e^(-round/))\n    }\n    return releasableTokens;\n  }\n\n  /**\n   * @dev Compute number of tokens to release from the decay phase when recently crossed to constant inflation phase\n   */\n  function newTokensForCrossingDecay() internal view returns (uint256) {\n    uint256 releasableFromDecayPhase = totalPremint.sub(totalReleased);\n    return releasableFromDecayPhase;\n  }\n\n  /**\n   * @dev Compute number of tokens to release from the constant inflation phase when recently crossed from decay phase\n   * @param _currentRound Round during which current release is made\n   */\n  function newTokensForCrossingConst(uint256 _currentRound) internal view returns (uint256) {\n    uint256 constStartTotalTokens = totalPremint;\n    uint256 roundsSinceConstInflation = _currentRound.sub(targetRound).add(1); // including the mint for target and for current round\n    uint256 toBeMinted = newTokensForConstantPhase(constStartTotalTokens, roundsSinceConstInflation);\n    return toBeMinted;\n  }\n\n  /**\n   * @dev Put new rewards into the different buckets (userRewards: [airdrop, rewardFund], developmentFund)\n   * @param _releasableTokens Amount of tokens that needs to be split up\n   */\n  function splitRewards(uint256 _releasableTokens) internal {\n    uint256 userRewards = _releasableTokens.mul(4).div(5); // 80% of inflation goes to the users\n    airdropFund = airdropFund.add(userRewards.div(2));\n    rewardFund = rewardFund.add(userRewards.div(2));\n    // For now half of the user rewards are curation rewards and half are signup/referral/airdrop rewards\n    // @Proposal for later: Formula for calculating airdrop vs curation reward split: airdrops = user rewards * airdrop base share ^ (roundNumber)\n    developmentFund = developmentFund.add(_releasableTokens.div(5)); // 20% of inflation goes to devFund\n  }\n\n  /**\n   * @dev Calculates total number of tokens to be minted during the decay phase until _round\n   * @param _round Round until which the partial sum is taken\n   */\n  function partialSum(uint256 _round) public view returns (uint256) {\n    // TODO: this needs to be worked out! with https://user-images.githubusercontent.com/337721/52804952-7e3f3080-3053-11e9-8bb2-9bc1c3df19ee.jpg\n    // and using Bancor's Power formula for e^x\n    // alternatively use the integral of the reward function:\n    // return initRoundReward.mul(-timeConstant).mul(fixedExp(-_round/timeConstant, 18)).add(timeConstant.mul(initRoundReward)); \n  }\n\n  /**\n   * @dev Transfer eligible tokens from devFund bucket to devFundAddress\n   */\n  function toDevFund() internal returns(bool) {\n    require(this.transfer(devFundAddress, developmentFund), \"Transfer to devFundAddress failed\");\n    developmentFund = 0;\n    return true;\n  }\n\n  /**\n  * @dev Allocate curation rewards\n  * @param _rewards to be reserved for users claims\n  */\n  function allocateRewards(uint256 _rewards) public onlyOwner returns(bool) {\n    require(_rewards <= rewardFund, \"Not enough curation rewards available\");\n    rewardFund = rewardFund.sub(_rewards);\n    allocatedRewards = allocatedRewards.add(_rewards);\n    return true;\n  }\n\n  /**\n  * @dev Allocate airdrop rewards\n  * @param _rewards to be reserved for user claims\n  */\n  function allocateAirdrops(uint256 _rewards) public onlyOwner returns(bool) {\n    require(_rewards <= airdropFund, \"Not enough airdrop rewards available\");\n    airdropFund = airdropFund.sub(_rewards);\n    allocatedAirdrops = allocatedAirdrops.add(_rewards);\n    return true;\n  }\n\n  /**\n  * @dev Claim curation reward tokens (to be called by user)\n  * @param  _amount amount to be transferred to user\n  * @param  _sig Signature by contract owner authorizing the transaction\n  */\n  function claimTokens(uint256 _amount, bytes memory _sig) public returns(bool) {\n    // check _amount + account matches hash\n    require(allocatedRewards >= _amount);\n    bytes32 hash = keccak256(abi.encodePacked(_amount, msg.sender, nonces[msg.sender]));\n    hash = keccak256(abi.encodePacked(\"\\x19Ethereum Signed Message:\\n32\", hash));\n\n    // check that the message was signed by contract owner\n    address recOwner = ECDSA.recover(hash, _sig);\n    // emit LogAddr('recOwner', recOwner);\n    require(owner() == recOwner, \"Claim not authorized\");\n    nonces[msg.sender] += 1;\n    allocatedRewards = allocatedRewards.sub(_amount);\n    require(this.transfer(msg.sender, _amount), \"Transfer to claimant failed\");\n    return true;\n  }\n\n  /**\n  * @dev Nonce of user\n  * @param _account User account address\n  * @return nonce of user\n  */\n  function nonceOf(address _account) public view returns(uint256) {\n    return nonces[_account];\n  }\n\n  /**\n   * @dev Return current round number // using the state variable set by setRoundNum, for testing\n   */\n  function roundNum() public view returns (uint256) {\n    return (block.number.sub(startBlock)).div(roundLength);\n    // return currentRound;\n  }\n\n  /**\n   * @dev Return rounds since last release\n   */\n  function roundsSincleLast() public view returns (uint256) {\n    // return (block.number.sub(startBlock)).div(roundLength);\n    return roundNum() - lastRound;\n  }\n\n\n  /* --------- TODO REMOVE!!!! -----------\n\n  /**\n   * @dev Artificially increases current round number // auxiliary function for testing (simulating block progression)\n   */\n  function setRoundNum(uint256 _roundNum) public onlyOwner returns (uint256) {\n    currentRound = _roundNum;\n    return currentRound;\n  }\n\n  /**\n   * @dev Artificially sets the last release round // auxiliary function for testing (simulating reward release)\n   */\n  function setLastRound(uint256 _roundNum, uint256 _lastRoundReward, uint256 _totalReleased) public onlyOwner returns (uint256) {\n    require(_roundNum < currentRound, \"Last release must be before current round\");\n    lastRound = _roundNum;\n    lastRoundReward = _lastRoundReward;\n    totalReleased = _totalReleased;\n    rewardFund = _totalReleased.mul(2).div(5);\n    airdropFund = _totalReleased.mul(2).div(5);\n    // devFund is always 0 since it gets transferred right away \n    return lastRound;\n  }\n\n  /**\n   * @dev Artificially empties the devFund account of all accumulated tokens // auxiliary function for testing\n   */\n  function emptyDevBalance() public onlyOwner {\n    uint devBalance = balanceOf(devFundAddress);\n    this.transferFrom(devFundAddress, address(0x123), devBalance);\n  }\n\n  event Log(string logString, uint value);\n  event LogAddr(string logString, address value);\n\n}\n\n",
  "sourcePath": "/Users/slavab/local/token/contracts/RelevantToken.sol",
  "compiler": {
    "name": "solc",
    "version": "0.5.0+commit.1d4f565a.Emscripten.clang"
  },
  "schemaVersion": "3.0.2",
  "updatedAt": "2019-03-03T07:53:45.367Z",
  "devdoc": {
    "methods": {
      "allocateAirdrops(uint256)": {
        "details": "Allocate airdrop rewards",
        "params": {
          "_rewards": "to be reserved for user claims"
        }
      },
      "allocateRewards(uint256)": {
        "details": "Allocate curation rewards",
        "params": {
          "_rewards": "to be reserved for users claims"
        }
      },
      "allowance(address,address)": {
        "details": "Function to check the amount of tokens that an owner allowed to a spender.",
        "params": {
          "owner": "address The address which owns the funds.",
          "spender": "address The address which will spend the funds."
        },
        "return": "A uint256 specifying the amount of tokens still available for the spender."
      },
      "approve(address,uint256)": {
        "details": "Approve the passed address to spend the specified amount of tokens on behalf of msg.sender. Beware that changing an allowance with this method brings the risk that someone may use both the old and the new allowance by unfortunate transaction ordering. One possible solution to mitigate this race condition is to first reduce the spender's allowance to 0 and set the desired value afterwards: https://github.com/ethereum/EIPs/issues/20#issuecomment-263524729",
        "params": {
          "spender": "The address which will spend the funds.",
          "value": "The amount of tokens to be spent."
        }
      },
      "balanceOf(address)": {
        "details": "Gets the balance of the specified address.",
        "params": {
          "owner": "The address to query the balance of."
        },
        "return": "An uint256 representing the amount owned by the passed address."
      },
      "claimTokens(uint256,bytes)": {
        "details": "Claim curation reward tokens (to be called by user)",
        "params": {
          "_amount": "amount to be transferred to user",
          "_sig": "Signature by contract owner authorizing the transaction"
        }
      },
      "decreaseAllowance(address,uint256)": {
        "details": "Decrease the amount of tokens that an owner allowed to a spender. approve should be called when allowed_[_spender] == 0. To decrement allowed value is better to use this function to avoid 2 calls (and wait until the first transaction is mined) From MonolithDAO Token.sol Emits an Approval event.",
        "params": {
          "spender": "The address which will spend the funds.",
          "subtractedValue": "The amount of tokens to decrease the allowance by."
        }
      },
      "emptyDevBalance()": {
        "details": "Artificially empties the devFund account of all accumulated tokens // auxiliary function for testing"
      },
      "increaseAllowance(address,uint256)": {
        "details": "Increase the amount of tokens that an owner allowed to a spender. approve should be called when allowed_[_spender] == 0. To increment allowed value is better to use this function to avoid 2 calls (and wait until the first transaction is mined) From MonolithDAO Token.sol Emits an Approval event.",
        "params": {
          "addedValue": "The amount of tokens to increase the allowance by.",
          "spender": "The address which will spend the funds."
        }
      },
      "initialize(string,uint8,string,string,address,uint256,uint256,uint256,uint256,uint256,uint256,uint256)": {
        "details": "ContPreInflationaryToken constructor",
        "params": {
          "_devFundAddress": "Address that receives and manages newly minted tokens for development fund",
          "_initRoundReward": "Number of released inflationary tokens per round during the first round",
          "_roundDecay": "Decay factor for the reward reduction during one round - can be calculated from timeConstant and roundLength",
          "_roundLength": "Number of blocks that make up an inflation release round",
          "_targetInflation": "Target inflation rate per round at which the reward decay should stop - can be calculated from target yearly inflation rate",
          "_targetRound": "Number of round from which inflation stays constant - can be calculated from timeConstant, initRoundReward and targetInflation",
          "_timeConstant": "Number of blocks after which reward reduces to 37% of initial value during exponential decay - can be calculated from half-life",
          "_totalPremint": "Rewards that are preminted (all until decay stops) - can be calculated from timeConstant, initRoundReward and targetInflation"
        }
      },
      "isOwner()": {
        "return": "true if `msg.sender` is the owner of the contract."
      },
      "mint(address,uint256)": {
        "details": "Function to mint tokens",
        "params": {
          "to": "The address that will receive the minted tokens.",
          "value": "The amount of tokens to mint."
        },
        "return": "A boolean that indicates if the operation was successful."
      },
      "nonceOf(address)": {
        "details": "Nonce of user",
        "params": {
          "_account": "User account address"
        },
        "return": "nonce of user"
      },
      "owner()": {
        "return": "the address of the owner."
      },
      "partialSum(uint256)": {
        "details": "Calculates total number of tokens to be minted during the decay phase until _round",
        "params": {
          "_round": "Round until which the partial sum is taken"
        }
      },
      "releaseTokens()": {
        "details": "Compute and release currently releasable inflationary rewards"
      },
      "renounceOwnership()": {
        "details": "Allows the current owner to relinquish control of the contract."
      },
      "roundNum()": {
        "details": "Return current round number // using the state variable set by setRoundNum, for testing"
      },
      "roundsSincleLast()": {
        "details": "Return rounds since last release"
      },
      "setLastRound(uint256,uint256,uint256)": {
        "details": "Artificially sets the last release round // auxiliary function for testing (simulating reward release)"
      },
      "totalSupply()": {
        "details": "Total number of tokens in existence"
      },
      "transfer(address,uint256)": {
        "details": "Transfer token for a specified address",
        "params": {
          "to": "The address to transfer to.",
          "value": "The amount to be transferred."
        }
      },
      "transferFrom(address,address,uint256)": {
        "details": "Transfer tokens from one address to another. Note that while this function emits an Approval event, this is not required as per the specification, and other compliant implementations may not emit the event.",
        "params": {
          "from": "address The address which you want to send tokens from",
          "to": "address The address which you want to transfer to",
          "value": "uint256 the amount of tokens to be transferred"
        }
      },
      "transferOwnership(address)": {
        "details": "Allows the current owner to transfer control of the contract to a newOwner.",
        "params": {
          "newOwner": "The address to transfer ownership to."
        }
      }
    },
    "title": "An Inflationary Token with premint, gradual release, exponential decay of inflationary rewards, and a target inflation rate"
  },
  "userdoc": {
    "methods": {
      "renounceOwnership()": {
        "notice": "Renouncing to ownership will leave the contract without an owner. It will not be possible to call the functions with the `onlyOwner` modifier anymore."
      }
    }
  }
}